:0400000007EF00F016
:0A0008007F820DED0DF0E7EF21F00F
:10100000003738392F3435362A3132332D23303DED
:101010002B3D3D3D3D3D3D3D3D3D3D3D3D3D3D3D12
:101020003D3D3D3D3D00446972656374696F6E3AB4
:101030002000202020202020202020200053706528
:1010400065643A200054696D653A20002569000006
:10105000000E0001BB6F000EBC6F000EBD6F000ED6
:10106000BE6F5FEF0AF0AC98AC94B896B7C0D9FFEA
:10107000B8C0DAFFDECF80F0DECF81F0DECF82F0C5
:10108000DECF83F0000E4DEC12F080C092F081C0F4
:1010900093F082C094F083C095F0000E00018E6F33
:1010A000240E8F6FF40E906F4A0E916F40EC0FF08C
:1010B0008EC0BFF08FC0C0F090C0C1F091C0C2F030
:1010C000000E0001926F000E936F800E946F420E1F
:1010D000956FBFC08EF0C0C08FF0C1C090F0C2C08D
:1010E00091F040EC0FF08EC0A7F08FC0A8F090C038
:1010F000A9F091C0AAF0000E0001AB6F000EAC6F1A
:10110000800EAD6FBF0EAE6FACEC0AF0A7C0BBF0A7
:10111000A8C0BCF0A9C0BDF0AAC0BEF08AEF0AF01A
:10112000AC98AC84B896B7C0D9FFB8C0DAFFDECFB0
:1011300080F0DECF81F0DECF82F0DECF83F0000ED4
:101140004DEC12F080C092F081C093F082C094F018
:1011500083C095F0000E00018E6F240E8F6FF40E89
:10116000906F4A0E916F40EC0FF08EC0BFF08FC0B1
:10117000C0F090C0C1F091C0C2F0000E0001926FAB
:10118000000E936F800E946F410E956FBFC08EF06E
:10119000C0C08FF0C1C090F0C2C091F040EC0FF021
:1011A0008EC0A7F08FC0A8F090C0A9F091C0AAF09F
:1011B000000E0001AB6F000EAC6F800EAD6FBF0E66
:1011C000AE6FACEC0AF0A7C0BBF0A8C0BCF0A9C0E1
:1011D000BDF0AAC0BEF08AEF0AF0AC98AC94B88615
:1011E000B7C0D9FFB8C0DAFFDECF80F0DECF81F024
:1011F000DECF82F0DECF83F0000E4DEC12F080C027
:1012000092F081C093F082C094F083C095F0000EFC
:1012100000018E6F240E8F6FF40E906F4A0E916F47
:1012200040EC0FF08EC0BFF08FC0C0F090C0C1F096
:1012300091C0C2F0000E0001926F000E936F800EFD
:10124000946F410E956FBFC08EF0C0C08FF0C1C0CB
:1012500090F0C2C091F040EC0FF08EC0A7F08FC0AC
:10126000A8F090C0A9F091C0AAF0000E0001AB6FE9
:10127000000EAC6F800EAD6FBF0EAE6FACEC0AF01F
:10128000A7C0BBF0A8C0BCF0A9C0BDF0AAC0BEF00A
:101290008AEF0AF0AC98AC84B886B7C0D9FFB8C062
:1012A000DAFFDECF80F0DECF81F0DECF82F0DECF5E
:1012B00083F0000E4DEC12F080C092F081C093F0EC
:1012C00082C094F083C095F0000E00018E6F240E52
:1012D0008F6FF40E906F4A0E916F40EC0FF08EC03E
:1012E000BFF08FC0C0F090C0C1F091C0C2F0000E3E
:1012F0000001926F000E936F800E946F400E956FF9
:10130000BFC08EF0C0C08FF0C1C090F0C2C091F0DD
:1013100040EC0FF08EC0A7F08FC0A8F090C0A9F0ED
:1013200091C0AAF0000E0001AB6F000EAC6F800EF2
:10133000AD6FBF0EAE6FACEC0AF0A7C0BBF0A8C09B
:10134000BCF0A9C0BDF0AAC0BEF08AEF0AF0AC881C
:10135000B896B7C0D9FFB8C0DAFFDECF80F0DECFD5
:1013600081F0DECF82F0DECF83F0000E4DEC12F084
:1013700080C092F081C093F082C094F083C095F059
:10138000000E00018E6F240E8F6FF40E906F4A0EC8
:10139000916F40EC0FF08EC0BFF08FC0C0F090C0D6
:1013A000C1F091C0C2F0000E0001926F000E936F69
:1013B000800E946F400E956FBFC08EF0C0C08FF04E
:1013C000C1C090F0C2C091F040EC0FF08EC0A7F009
:1013D0008FC0A8F090C0A9F091C0AAF0000E000143
:1013E000AB6F000EAC6F800EAD6FBF0EAE6FACEC8E
:1013F0000AF0A7C0BBF0A8C0BCF0A9C0BDF0AAC04D
:10140000BEF08AEF0AF0AC88B886B7C0D9FFB8C082
:10141000DAFFDECF80F0DECF81F0DECF82F0DECFEC
:1014200083F0000E4DEC12F080C092F081C093F07A
:1014300082C094F083C095F0000E00018E6F240EE0
:101440008F6FF40E906F4A0E916F40EC0FF08EC0CC
:10145000BFF08FC0C0F090C0C1F091C0C2F0000ECC
:101460000001926F000E936F800E946F400E956F87
:10147000BFC08EF0C0C08FF0C1C090F0C2C091F06C
:1014800040EC0FF08EC0A7F08FC0A8F090C0A9F07C
:1014900091C0AAF0000E0001AB6F000EAC6F800E81
:1014A000AD6FBF0EAE6FACEC0AF0A7C0BBF0A8C02A
:1014B000BCF0A9C0BDF0AAC0BEF08AEF0AF020EED1
:1014C00004F0B751D926B851DA22DF50B96FBA6BA0
:1014D000BA51000AD8B46FEF0AF08AEF0AF0B95196
:1014E000000AD8B433EF08F0010AD8B490EF08F03E
:1014F000030AD8B4EDEF08F0010AD8B44AEF09F0B6
:10150000070AD8B4A7EF09F0010AD8B403EF0AF02C
:101510008AEF0AF0BBC080F0BCC081F0BDC082F091
:10152000BEC083F0A5EC1BF000018051AF6EBBC0C4
:1015300080F0BCC081F0BDC082F0BEC083F0A5ECDD
:101540001BF0000181C080F082C081F083C082F076
:10155000836B8051B06E12000001AA51800BB36FF3
:10156000AA51AA25B56FA9AFB8EF0AF0BAEF0AF0F1
:10157000BBEF0AF0B581B551D8B4C1EF0AF0C3EFA3
:101580000AF0D8EF0AF0B529D8A4C9EF0AF0CBEFDA
:101590000AF0D3EF0AF0000EA76F000EA86F000E3E
:1015A000A96F000EAA6FA98F000EAA6FE0EF0AF0D4
:1015B000000EA76F000EA86F000EA96F000EAA6F95
:1015C000AE51800BB46FB351B419D8B4EAEF0AF03E
:1015D000ECEF0AF0EDEF0AF0B38DAE51AE25B46F2B
:1015E000ADAFF5EF0AF0F7EF0AF0F8EF0AF0B481CB
:1015F000B451D8B4FEEF0AF000EF0BF015EF0BF08A
:10160000B429D8A406EF0BF008EF0BF010EF0BF0A5
:10161000000EAB6F000EAC6F000EAD6F000EAE6F24
:10162000AD8F000EAE6F1DEF0BF0000EAB6F000E16
:10163000AC6F000EAD6F000EAE6FB551B45DD8B09B
:1016400024EF0BF026EF0BF04DEF0BF0B3AD2BEFCB
:101650000BF02DEF0BF02FEF0BF0800EB31BB5C08E
:10166000B6F0B4C0B5F0B6C0B4F0A7C0B6F0ABC029
:10167000A7F0B6C0ABF0A8C0B6F0ACC0A8F0B6C03A
:10168000ACF0A9C0B6F0ADC0A9F0B6C0ADF0AAC02C
:10169000B6F0AEC0AAF0B6C0AEF0000EB66FB5514F
:1016A000B4C0AFF0B06BAF5F000EB05BB0BF62EF25
:1016B0000BF0B05109E11A0EAF5DD8A062EF0BF04C
:1016C00064EF0BF09BEF0BF0A751A811A911AA1121
:1016D000D8A46DEF0BF070EF0BF0010E71EF0BF073
:1016E000000EB66F000EA76F000EA86F000EA96F58
:1016F000000EAA6FB4C0B5F0A4EF0BF0B6A183EF53
:101700000BF085EF0BF08BEF0BF0D890B6310109A1
:10171000B66F8DEF0BF0D890B633A7A192EF0BF018
:1017200094EF0BF095EF0BF0B68FAA35AA33A933DF
:10173000A833A733B52BB451B55DD8A0A2EF0BF0F9
:10174000A4EF0BF07EEF0BF0B3BDA9EF0BF0ABEF06
:101750000BF0EBEF0BF0B551D8A4B1EF0BF0B3EFFA
:101760000BF0BDEF0BF0000EA76F000EA86F000E80
:10177000A96F000EAA6F0CEF0DF0AB51A727AC516B
:10178000A823AD51A923AE51AA23AAA1CAEF0BF0F9
:10179000CCEF0BF078EF0CF0B6A1D1EF0BF0D3EF5C
:1017A0000BF0D9EF0BF0D890B6310109B66FDBEF33
:1017B0000BF0D890B633A7A1E0EF0BF0E2EF0BF0FF
:1017C000E3EF0BF0B68FAA35AA33A933A833A733BA
:1017D000B52B78EF0CF0AB51A75DAC51A859AD51CA
:1017E000A959AA51800AAF6FAE51800AAF59D8B03B
:1017F000FCEF0BF0FEEF0BF029EF0CF0A751AB5D07
:10180000AF6FA851AC59B06FA951AD59B16FAA5182
:10181000AE59B26FFF0EAF25A76FFF0EB021A86FB4
:10182000FF0EB121A96FFF0EB221AA6F800EB31B6C
:10183000B66DB651D8A41FEF0CF021EF0CF031EFCC
:101840000CF0010EA727000EA823A923AA2331EF2D
:101850000CF0AB51A75FAC51A85BAD51A95BAE5189
:10186000AA5BA751A811A911AA11D8A43AEF0CF0AC
:101870003CEF0CF071EF0CF0B651D8A442EF0CF035
:1018800044EF0CF071EF0CF0000EA76F000EA86F84
:10189000000EA96F000EAA6F0CEF0DF0D890A737BD
:1018A000A837A937AA37B6AF58EF0CF05AEF0CF0AB
:1018B0005BEF0CF0A781B6A160EF0CF062EF0CF0CB
:1018C00066EF0CF0D880B63768EF0CF0D890B637DA
:1018D000B551D8B46EEF0CF070EF0CF071EF0CF066
:1018E000B507A9AF76EF0CF078EF0CF04EEF0CF0E7
:1018F000000EB46FB6AF7FEF0CF081EF0CF099EFF4
:101900000CF0B6C0AFF07F0EAF17D8B48AEF0CF072
:101910008CEF0CF090EF0CF0010EB46F99EF0CF01F
:10192000A7A195EF0CF097EF0CF099EF0CF08CEF6E
:101930000CF0B451D8B49FEF0CF0A1EF0CF0CCEF49
:101940000CF0010EA727000EA823A923AA23AAA101
:10195000ACEF0CF0AEEF0CF0CCEF0CF0A7C0AFF09A
:10196000A8C0B0F0A9C0B1F0AAC0B2F0B235B2338D
:10197000B133B033AF33AFC0A7F0B0C0A8F0B1C03F
:10198000A9F0B2C0AAF0B529D8B4C9EF0CF0CBEFDA
:101990000CF0CCEF0CF0B52BB529D8B4D2EF0CF08D
:1019A000D4EF0CF0DCEF0CF0B551D8A4DAEF0CF06A
:1019B000DCEF0CF0EEEF0CF0000EA76F000EA86F3E
:1019C000000EA96F000EAA6FB551D8A4EAEF0CF073
:1019D000ECEF0CF0EEEF0CF0000EB36FB5A1F3EFEF
:1019E0000CF0F5EF0CF0F8EF0CF0A98FF9EF0CF01C
:1019F000A99FD890B531AA6FB3AF01EF0DF003EFF7
:101A00000DF004EF0DF0AA8FA7C0A7F0A8C0A8F0B2
:101A1000A9C0A9F0AAC0AAF012000600FACF57F098
:101A2000FBCF58F0E1CF59F0E2CF5AF0D9CF5BF0BD
:101A3000DACF5CF0F3CF5DF0F4CF5EF0F6CF5FF07D
:101A4000F7CF60F0F8CF61F0F5CF62F0F2A82BEF9E
:101A50000DF02DEF0DF036EF0DF0F2A232EF0DF09C
:101A600034EF0DF036EF0DF060EC27F0F0A63BEF11
:101A70000DF03DEF0DF046EF0DF0F0A042EF0DF050
:101A800044EF0DF046EF0DF05EEC27F0F0A84BEFC1
:101A90000DF04DEF0DF056EF0DF0F0A252EF0DF0FE
:101AA00054EF0DF056EF0DF05CEC27F0F2A65BEF73
:101AB0000DF05DEF0DF078EF0DF0F2A062EF0DF09C
:101AC00064EF0DF078EF0DF081A869EF0DF06BEF8A
:101AD0000DF078EF0DF07E04D8A471EF0DF073EFE8
:101AE0000DF078EF0DF0000E7E6E000E1DEC27F06D
:101AF000F2A67DEF0DF07FEF0DF09AEF0DF0F2A062
:101B000084EF0DF086EF0DF09AEF0DF081B88BEFBA
:101B10000DF08DEF0DF09AEF0DF07E50D8A493EFFD
:101B20000DF095EF0DF09AEF0DF0010E7E6E010EA7
:101B30001DEC27F0F2A69FEF0DF0A1EF0DF0BCEF2A
:101B40000DF0F2A0A6EF0DF0A8EF0DF0BCEF0DF038
:101B500081AAADEF0DF0AFEF0DF0BCEF0DF07D04FD
:101B6000D8A4B5EF0DF0B7EF0DF0BCEF0DF0000EFF
:101B70007D6E000E10EC27F0F2A6C1EF0DF0C3EF62
:101B80000DF0DEEF0DF0F2A0C8EF0DF0CAEF0DF092
:101B9000DEEF0DF081BACFEF0DF0D1EF0DF0DEEFFB
:101BA0000DF07D50D8A4D7EF0DF0D9EF0DF0DEEF9A
:101BB0000DF0010E7D6E010E10EC27F0F2A6E3EFA2
:101BC0000DF0E5EF0DF000EF0EF0F2A0EAEF0DF0F2
:101BD000ECEF0DF000EF0EF081ACF1EF0DF0F3EF54
:101BE0000DF000EF0EF07C04D8A4F9EF0DF0FBEF40
:101BF0000DF000EF0EF0000E7C6E000E03EC27F0EF
:101C0000F2A605EF0EF007EF0EF022EF0EF0F2A0B5
:101C10000CEF0EF00EEF0EF022EF0EF081BC13EF82
:101C20000EF015EF0EF022EF0EF07C50D8A41BEF53
:101C30000EF01DEF0EF022EF0EF0010E7C6E010E85
:101C400003EC27F0F2A627EF0EF029EF0EF044EF99
:101C50000EF0F2A02EEF0EF030EF0EF044EF0EF08B
:101C600081AE35EF0EF037EF0EF044EF0EF07B044F
:101C7000D8A43DEF0EF03FEF0EF044EF0EF0000E53
:101C80007B6E000EF6EC26F0F2A649EF0EF04BEF5D
:101C90000EF066EF0EF0F2A050EF0EF052EF0EF0E5
:101CA00066EF0EF081BE57EF0EF059EF0EF066EFC3
:101CB0000EF07B50D8A45FEF0EF061EF0EF066EFF0
:101CC0000EF0010E7B6E010EF6EC26F09DAC6BEF74
:101CD0000EF06DEF0EF076EF0EF09EAC72EF0EF0A0
:101CE00074EF0EF076EF0EF06AEC27F0F2AA7BEFBD
:101CF0000EF07DEF0EF086EF0EF0F2A482EF0EF004
:101D000084EF0EF086EF0EF076EC26F09DA08BEFC0
:101D10000EF08DEF0EF096EF0EF09EA092EF0EF00B
:101D200094EF0EF096EF0EF042EC27F09DA29BEFA1
:101D30000EF09DEF0EF0A6EF0EF09EA2A2EF0EF0B9
:101D4000A4EF0EF0A6EF0EF04FEC27F0A0A2ABEF41
:101D50000EF0ADEF0EF0B6EF0EF0A1A2B2EF0EF066
:101D6000B4EF0EF0B6EF0EF03BEC27F09DA4BBEF06
:101D70000EF0BDEF0EF0C6EF0EF09EA4C2EF0EF017
:101D8000C4EF0EF0C6EF0EF068EC27F0A0A0CBEF8A
:101D90000EF0CDEF0EF0D6EF0EF0A1A0D2EF0EF0C8
:101DA000D4EF0EF0D6EF0EF066EC27F09DA8DBEF37
:101DB0000EF0DDEF0EF0E6EF0EF09EA8E2EF0EF073
:101DC000E4EF0EF0E6EF0EF0C9EC26F09DAAEBEF83
:101DD0000EF0EDEF0EF0F6EF0EF09EAAF2EF0EF021
:101DE000F4EF0EF0F6EF0EF02EEC22F09DA6FBEFD6
:101DF0000EF0FDEF0EF006EF0FF09EA602EF0FF0D3
:101E000004EF0FF006EF0FF06FEC27F09DA60BEF3D
:101E10000FF00DEF0FF016EF0FF09EA612EF0FF080
:101E200014EF0FF016EF0FF062EC27F0A0A61BEFF7
:101E30000FF01DEF0FF026EF0FF0A1A622EF0FF02D
:101E400024EF0FF026EF0FF064EC27F062C0F5FFEF
:101E500061C0F8FF60C0F7FF5FC0F6FF5EC0F4FF2F
:101E60005DC0F3FF5CC0DAFF5BC0D9FF5AC0E2FF80
:101E700059C0E1FF58C0FBFF57C0FAFF7F92110025
:101E800000019151800B9E6F91519125A56F90AFEC
:101E90004CEF0FF04EEF0FF04FEF0FF0A581A55173
:101EA000D8B455EF0FF057EF0FF06CEF0FF0A529F6
:101EB000D8A45DEF0FF05FEF0FF067EF0FF0000EAB
:101EC0008E6F000E8F6F000E906F000E916F908FCF
:101ED000000E916F74EF0FF0000E8E6F000E8F6F7B
:101EE000000E906F000E916F9551800B9E1B9551C7
:101EF0009525A66F94AF7FEF0FF081EF0FF082EF83
:101F00000FF0A681A651D8B488EF0FF08AEF0FF03A
:101F10009FEF0FF0A629D8A490EF0FF092EF0FF0EB
:101F20009AEF0FF0000E926F000E936F000E946FF9
:101F3000000E956F948F000E956FA7EF0FF0000EB7
:101F4000926F000E936F000E946F000E956F92517A
:101F5000931194119511D8A4B0EF0FF0B2EF0FF0D8
:101F6000CAEF0FF0000E8E6F000E8F6F000E906F95
:101F7000000E916F800E90137F0E91139E5191135E
:101F80008EC08EF08FC08FF090C090F091C091F015
:101F90000DEF11F0A551D8A4D0EF0FF0D2EF0FF054
:101FA000DCEF0FF0000E8E6F000E8F6F000E906F43
:101FB000000E916F0DEF11F0A651A5C096F0976B32
:101FC000965F000E975B7F0E96259F6F000E972100
:101FD000A06F8EC09AF08FC09BF090C09CF091C013
:101FE0009DF0000E8E6F000E8F6F000E906F000E32
:101FF000916F000EA16F000EA26F000EA36F000E76
:10200000A46F000EA66F3DEF10F0A651D8B40BEFF1
:1020100010F00DEF10F024EF10F0D8909A379B37A6
:102020009C379D37D8908E378F3790379137A4AF34
:102030001CEF10F01EEF10F01FEF10F08E81D89003
:10204000A137A237A337A43792519A5D93519B5978
:1020500094519C5995519D59D8A031EF10F033EF10
:1020600010F03CEF10F0A48D92519A5F93519B5B5E
:1020700094519C5B95519D5BA62B190EA66543EF71
:1020800010F045EF10F005EF10F09A519B119C11E4
:102090009D11D8B44EEF10F050EF10F068EF10F033
:1020A000A18168EF10F0D8908E378F379037913735
:1020B000A4AF5DEF10F05FEF10F060EF10F08E81D5
:1020C000D890A137A237A337A4379F07D8A0A0077D
:1020D00090AF6DEF10F06FEF10F053EF10F0000EB7
:1020E000A66FA4AF76EF10F078EF10F09CEF10F031
:1020F000FF0EA115966FFF0EA215976FFF0EA31589
:10210000986F7F0EA415996F965197119811991198
:10211000D8B48DEF10F08FEF10F093EF10F0010EA8
:10212000A66F9CEF10F08EA198EF10F09AEF10F0D0
:102130009CEF10F08FEF10F0A651D8B4A2EF10F082
:10214000A4EF10F0C8EF10F0010E8E27000E8F23C1
:102150009023912391A1AFEF10F0B1EF10F0C8EFF1
:1021600010F08EC096F08FC097F090C098F091C09C
:1021700099F09935993398339733963396C08EF00A
:1021800097C08FF098C090F099C091F09F4BA02B12
:10219000A0BFD3EF10F0A05108E19F29D8A0D3EF42
:1021A00010F0D5EF10F0E0EF10F0000EA06F9F6977
:1021B000000E8E6F000E8F6F000E906F000E916FED
:1021C000A0BFEDEF10F0A05106E19F05D8B0EBEFF6
:1021D00010F0EDEF10F0FBEF10F0000EA06F000E0E
:1021E0009F6F000E8E6F000E8F6F000E906F000EAF
:1021F000916F000E9E6F9FC0A5F0A5A102EF11F098
:1022000004EF11F007EF11F0908F08EF11F0909F9D
:10221000D890A531916FBEEF0FF01200460E6524E5
:10222000016E026A010E0222E1EC26F0652A080E18
:102230006518D8A41EEF11F020EF11F04CEF12F04A
:10224000000E656E350E01014A6129EF11F02BEF8A
:1022500011F04CEF12F0350E4B6531EF11F033EF0A
:1022600011F03EEF11F0340E4A19D8A43AEF11F0F4
:102270003CEF11F03EEF11F04CEF12F0450E4D190E
:10228000D8B445EF11F047EF11F049EF11F04CEFE2
:1022900012F0310E4619D8A450EF11F052EF11F0A0
:1022A0005BEF11F0300E4719D8A459EF11F05BEF36
:1022B00011F04CEF12F0310E4619D8A462EF11F074
:1022C00064EF11F06DEF11F0300E4819D8A46BEFE8
:1022D00011F06DEF11F04CEF12F0310E466573EF17
:1022E00011F075EF11F077EF11F04CEF12F0F00EE6
:1022F0001E6E000E1F6E010E206E070E216E320E36
:10230000226E100E236E8EEC25F0256EF00E1E6EE2
:10231000000E1F6E020E206E0B0E216E320E226E0C
:10232000100E236E8EEC25F0256EF00E1E6E000E44
:102330001F6E010E206E070E216E200E226EB2EC73
:1023400025F0300E01014619D8A4A9EF11F0ABEF2A
:1023500011F0C8EF11F0300E4719D8B4B2EF11F0F8
:10236000B4EF11F0C8EF11F0F00E0E6E000E0F6E0C
:1023700047C110F09FEC21F0256EF00E0E6E000E9E
:102380000F6E48C110F09FEC21F0256EFFEF11F0A9
:10239000300E4619D8A4CFEF11F0D1EF11F0E4EFD1
:1023A00011F0300E4719D8A4D8EF11F0DAEF11F080
:1023B000E4EF11F0F00E0E6E000E0F6E48C110F03B
:1023C0009FEC21F0FFEF11F0F00E0E6E000E0F6E7D
:1023D00046C110F09FEC21F0256EF00E0E6E000E3F
:1023E0000F6E47C110F09FEC21F0256EF00E0E6EBF
:1023F000000E0F6E48C110F09FEC21F0256EF00E1C
:102400000E6E000E0F6E250E106E9FEC21F0256EE5
:10241000F00E1E6E000E1F6E020E206E0B0E216E51
:10242000200E226EB2EC25F0256E4C0E01014C19E7
:10243000D8A41DEF12F01FEF12F029EF12F0F00EEA
:102440000E6E000E0F6E2D0E106E9FEC21F03AEF07
:1024500012F0520E4C19D8A430EF12F032EF12F0F5
:102460003AEF12F0F00E0E6E000E0F6E2B0E106E85
:102470009FEC21F0F00E0E6E000E0F6E4AC110F0B0
:102480009FEC21F0256EF00E0E6E000E0F6E4BC10C
:1024900010F09FEC21F0256E12000001886F000102
:1024A0008851D8B456EF12F058EF12F07AEF12F0CC
:1024B00083BF5FEF12F05DEF12F07AEF12F080C091
:1024C00084F081C085F082C086F083C087F0841FCD
:1024D000851F861F871F842B000E85238623872355
:1024E00084C08AF085C08BF086C08CF087C08DF0E8
:1024F00082EF12F080C08AF081C08BF082C08CF035
:1025000083C08DF08051811182118311D8A48BEF8B
:1025100012F08DEF12F097EF12F0000E806F000EA8
:10252000816F000E826F000E836F28EF13F0960EFE
:10253000896FA1EF12F0892BD8908D338C338B33B8
:102540008A33000E8A15846F000E8B15856F000E7E
:102550008C15866FFE0E8D15876F8451851186113F
:102560008711D8A4B6EF12F0B8EF12F09BEF12F07B
:10257000C6EF12F0892B010E8A27000E8B238C23C5
:102580008D23D8908D338C338B338A33000E8A158C
:10259000846F000E8B15856F000E8C15866FFF0EF5
:1025A0008D15876F8451851186118711D8A4DBEFB3
:1025B00012F0DDEF12F0BAEF12F0E5EF12F089073A
:1025C000D8908A378B378C378D378CBFEAEF12F073
:1025D000ECEF12F0F4EF12F0020E8961F2EF12F05C
:1025E000F4EF12F0DFEF12F089B1F9EF12F0FBEF28
:1025F00012F0FCEF12F08C9FD890893389C084F0E0
:10260000856B866B876B84C087F0866B856B846B6C
:1026100084518A1385518B1386518C1387518D13E6
:102620008851D8B416EF13F018EF13F020EF13F021
:1026300083BF1FEF13F01DEF13F020EF13F08D8F0A
:102640008AC080F08BC081F08CC082F08DC083F096
:10265000120000019EBF2FEF13F032EF13F0010EB6
:1026600033EF13F0000EA76FA751D8B43AEF13F071
:102670003CEF13F040EF13F09D6D9E1FD8B09E2BE2
:10268000D9BF47EF13F045EF13F04DEF13F0000EF5
:10269000A26F010EA16F51EF13F0D8C0A1F0D9C005
:1026A000A2F0D6C0A3F0D7C0A4F0A751D8B45BEF76
:1026B00013F05DEF13F074EF13F0A307D8A0A40795
:1026C000A751D8A466EF13F068EF13F06EEF13F084
:1026D000000EA06F2B0E9F6F72EF13F0000EA06F15
:1026E0002D0E9F6F9FC0A7F0000EA66F1F0EA56F47
:1026F000000E0101456FAEEF13F0A507D8A0A607A5
:10270000260EA525D96E010EA621DA6E9DC080F099
:102710009EC081F0000E836F0A0E826F62EC1FF084
:1027200080C086F081C087F0F7EC25F0000186516B
:10273000300FDF6EA107D8A0A207A307D8A0A40777
:102740009DC080F09EC081F0000E836F0A0E826FE4
:1027500042EC1EF080C09DF081C09EF00001A6BF3B
:10276000BAEF13F0A65108E1A505D8A0BAEF13F00F
:10277000BCEF13F0D2EF13F09D519E11D8A4C3EF1C
:1027800013F0C5EF13F07DEF13F0A2BFD2EF13F0FB
:10279000A25106E1A105D8B0D0EF13F0D2EF13F0AB
:1027A0007DEF13F0A751D8B4D8EF13F0DAEF13F0A0
:1027B000E5EF13F0A507D8A0A607260EA525D96E2C
:1027C000010EA621DA6EA7C0DFFF9BC090F09CC06F
:1027D00091F0260EA525926F010EA621936FA3C03E
:1027E00094F0A4C095F0B1EC22F012001FBEFBEFF4
:1027F00013F0FEEF13F0010EFFEF13F0000E286E42
:102800002850D8B406EF14F008EF14F00CEF14F0D1
:102810001E6C1F1ED8B01F2A0001D9BF14EF14F080
:1028200012EF14F01AEF14F0000E236E010E226E58
:102830001EEF14F0D8C022F0D9C023F0D6C024F087
:10284000D7C025F02850D8B428EF14F02AEF14F0A0
:1028500041EF14F02406D8A025062850D8A433EF61
:1028600014F035EF14F03BEF14F0000E216E2B0E38
:10287000206E3FEF14F0000E216E2D0E206E20C052
:1028800028F0000E276E1F0E266E000E0101456F08
:102890007AEF14F02606D8A02706260E2624D96E35
:1028A000010E2720DA6E1EC001F01FC002F0000EDC
:1028B000046E0A0E036EBBEC1FF001C007F002C0ED
:1028C00008F038EC26F00750300FDF6E2206D8A053
:1028D00023062406D8A025061EC001F01FC002F062
:1028E000000E046E0A0E036EA5EC1EF001C01EF071
:1028F00002C01FF027BE85EF14F0275008E1260420
:10290000D8A085EF14F087EF14F09DEF14F01E505F
:102910001F10D8A48EEF14F090EF14F04AEF14F0CB
:1029200023BE9DEF14F0235006E12204D8B09BEFA4
:1029300014F09DEF14F04AEF14F02850D8B4A3EF30
:1029400014F0A5EF14F0B0EF14F02606D8A0270677
:10295000260E2624D96E010E2720DA6E28C0DFFF4E
:102960001CC011F01DC012F0260E2624136E010E9D
:102970002720146E24C015F025C016F0F0EC22F0CC
:10298000120080C08AF081C08BF000018451851153
:10299000D8A4CDEF14F0CFEF14F0D1EF14F07CEF0A
:1029A00015F08AC0D9FF8BC0DAFF82C0DFFF8451E7
:1029B0008A25866F85518B21876FFF0E8625D96EFC
:1029C000FF0E8721DA6E82C0DFFF855107E1030E1B
:1029D000845DD8B0EEEF14F0F0EF14F0F2EF14F0E5
:1029E0007CEF15F020EE01F08A51D9268B51DA22C6
:1029F00082C0DFFF20EE02F08A51D9268B51DA2205
:102A000082C0DFFF84518A25866F85518B21876FB5
:102A1000FE0E8625D96EFF0E8721DA6E82C0DFFF9B
:102A200084518A25866F85518B21876FFD0E8625FF
:102A3000D96EFF0E8721DA6E82C0DFFF855107E174
:102A4000070E845DD8B027EF15F029EF15F02BEFB6
:102A500015F07CEF15F020EE03F08A51D9268B514A
:102A6000DA2282C0DFFF84518A25866F85518B214F
:102A7000876FFC0E8625D96EFF0E8721DA6E82C025
:102A8000DFFF855107E1090E845DD8B04AEF15F0EC
:102A90004CEF15F04EEF15F07CEF15F08AC086F084
:102AA0008BC087F0861F871F864B872B030E8615EA
:102AB000886F896B88518A2789518B238851845F5D
:102AC0008951855BFC0E8417FF0E851773EF15F097
:102AD0008AC0D9FF8BC0DAFF82C0DFFF8407D8A08D
:102AE00085078A4B8B2B84518511D8A47AEF15F07A
:102AF0007CEF15F068EF15F0120001C00BF002C07A
:102B00000CF005500610D8A488EF15F08AEF15F0E8
:102B10008CEF15F037EF16F00BC0D9FF0CC0DAFFC1
:102B200003C0DFFF05500B24076E06500C20086E13
:102B3000FF0E0724D96EFF0E0820DA6E03C0DFFFF8
:102B4000065007E1030E055CD8B0A9EF15F0ABEF16
:102B500015F0ADEF15F037EF16F020EE01F00B5049
:102B6000D9260C50DA2203C0DFFF20EE02F00B5012
:102B7000D9260C50DA2203C0DFFF05500B24076E64
:102B800006500C20086EFE0E0724D96EFF0E08209A
:102B9000DA6E03C0DFFF05500B24076E06500C20D1
:102BA000086EFD0E0724D96EFF0E0820DA6E03C0F2
:102BB000DFFF065007E1070E055CD8B0E2EF15F025
:102BC000E4EF15F0E6EF15F037EF16F020EE03F026
:102BD0000B50D9260C50DA2203C0DFFF05500B241E
:102BE000076E06500C20086EFC0E0724D96EFF0EEF
:102BF0000820DA6E03C0DFFF065007E1090E055C0E
:102C0000D8B005EF16F007EF16F009EF16F037EF22
:102C100016F00BC007F00CC008F0071E081E074A8C
:102C2000082A030E0714096E0A6A09500B260A5077
:102C30000C220950055E0A50065AFC0E0516FF0EBE
:102C400006162EEF16F00BC0D9FF0CC0DAFF03C03A
:102C5000DFFF0506D8A006060B4A0C2A0550061011
:102C6000D8A435EF16F037EF16F023EF16F0120068
:102C7000F00E00019D6F000E9E6F030E9F6F010E00
:102C8000A06F450EA16F100EA26FF8EC24F0FF0E9E
:102C90000001D26F000ED36F6B5099EC23F0F00E51
:102CA00000019D6F000E9E6F030E9F6F070EA06FB9
:102CB000FFC0A1F01EEC25F0FE0E0001D26F000E49
:102CC000D36F6A5099EC23F0F00E00019D6F000E57
:102CD0009E6F030E9F6F080EA06FFEC0A1F01EEC4A
:102CE00025F0F00E00019D6F000E9E6F030E9F6F8A
:102CF000090EA06F3A0EA16F1EEC25F0FD0E00012B
:102D0000D26F000ED36F695099EC23F0F00E0001E2
:102D10009D6F000E9E6F030E9F6F0A0EA06FFDC089
:102D2000A1F01EEC25F0FC0E0001D26F000ED36F57
:102D3000685099EC23F0F00E00019D6F000E9E6F1D
:102D4000030E9F6F0B0EA06FFCC0A1F01EEC25F0D0
:102D5000F00E00019D6F000E9E6F030E9F6F0C0E14
:102D6000A06F3A0EA16F1EEC25F0FB0E0001D26F92
:102D7000000ED36F675099EC23F0F00E00019D6FA9
:102D8000000E9E6F030E9F6F0D0EA06FFBC0A1F093
:102D90001EEC25F0FA0E0001D26F000ED36F6650C4
:102DA00099EC23F0F00E00019D6F000E9E6F030E54
:102DB0009F6F0E0EA06FFAC0A1F01EEC25F012005E
:102DC000000E00019A6F96519711D8A4EAEF16F001
:102DD000ECEF16F0F0EF16F0000E9B6F84EF17F09B
:102DE00096C08AF097C08BF02DEC23F000019B6F0A
:102DF000010E96258A6F000E97218B6F2DEC23F024
:102E000000019B6F000E9A6F9A519625986F000EE5
:102E10009721996F020E98258A6F000E99218B6F6A
:102E20002DEC23F000019A2B070E9A651AEF17F08C
:102E30001CEF17F004EF17F0340E0001986FF10E3D
:102E4000E82EFED7982FFCD700D096C08DF097C003
:102E50008EF0380E00018F6FBDEC20F00D0E0001DA
:102E6000986FFB0EE82EFED7982FFCD700D096C0A7
:102E70008DF097C08EF0380E00018F6FBDEC20F002
:102E8000640EE82EFED796C08DF097C08EF0380EF7
:102E900000018F6FBDEC20F096C08DF097C08EF0D2
:102EA000010E00018F6FBDEC20F096C08DF097C031
:102EB0008EF0020E00018F6FBDEC20F096C08DF0F9
:102EC00097C08EF0060E00018F6FBDEC20F096C00B
:102ED0008DF097C08EF00C0E00018F6FBDEC20F0CE
:102EE00096C08DF097C08EF0380E00018F6FBDEC4C
:102EF00020F096C08DF097C08EF0800E00018F6F8D
:102F0000BDEC20F000019B6F9B511200010E0001EF
:102F1000886F80518111D8B490EF17F092EF17F0BD
:102F2000A3EF17F080C0D9FF81C0DAFFDF30E832AD
:102F3000E832070B826F070E8265A1EF17F0A3EF4F
:102F400017F008EF18F0000E886F29EF18F080C016
:102F5000D9FF81C0DAFFDF30E832E832070B826F39
:102F6000010E836F822BB7EF17F0D8908337822F33
:102F7000B5EF17F000018351FF0A846F80C0D9FFBD
:102F800081C0DAFFDF50070B856F8551020D620E9D
:102F9000F324D96E010EF420DA6EDECF86F0DDCF99
:102FA00087F086C0D9FF87C0DAFF8451DF1629EF8A
:102FB00018F080C0D9FF81C0DAFFDF30E832E83294
:102FC000070B826F010E836F822BE9EF17F0D89009
:102FD0008337822FE7EF17F080C0D9FF81C0DAFF77
:102FE000DF50070B0001846F8451020D620EF32441
:102FF000D96E010EF420DA6EDECF85F0DDCF86F0DB
:1030000085C0D9FF86C0DAFF8351DF1229EF18F09F
:1030100080C0D9FF81C0DAFFDFBC11EF18F014EFD8
:1030200018F0010E15EF18F0000E826F836B8351BC
:10303000000AD8B41EEF18F0A3EF17F08251000A6F
:10304000D8B4A7EF17F0010AD8B4D9EF17F0A3EF5F
:1030500017F088511200010E0001896F8051811113
:10306000D8B435EF18F037EF18F048EF18F080C0FB
:10307000D9FF81C0DAFFDF30E832E832070B836F17
:10308000070E836546EF18F048EF18F0ADEF18F023
:10309000000E896FC2EF18F080C0D9FF81C0DAFF3F
:1030A000DF30E832E832070B836F010E846F832B29
:1030B0005CEF18F0D8908437832F5AEF18F0000196
:1030C0008451FF0A856F80C0D9FF81C0DAFFDF50CD
:1030D000070B866F8651020D580EF324D96E010E30
:1030E000F420DA6EDECF87F0DDCF88F087C0D9FF1D
:1030F00088C0DAFF8551DF16C2EF18F080C0D9FF13
:1031000081C0DAFFDF30E832E832070B836F010E4F
:10311000846F832B8EEF18F0D8908437832F8CEF39
:1031200018F080C0D9FF81C0DAFFDF50070B000123
:10313000856F8551020D580EF324D96E010EF420CF
:10314000DA6EDECF86F0DDCF87F086C0D9FF87C08C
:10315000DAFF8451DF12C2EF18F08251836F846B63
:103160008451000AD8B4B7EF18F048EF18F0835133
:10317000000AD8B44CEF18F0010AD8B47EEF18F06A
:1031800048EF18F089511200F00E1E6E000E1F6EEF
:10319000030E206E010E216E450E226E100E236E60
:1031A0008EEC25F0FF0E536E000E546E6B5028EC23
:1031B00024F0F00E1E6E000E1F6E030E206E070E22
:1031C000216EFFC022F0B2EC25F0FE0E536E000E11
:1031D000546E6A5028EC24F0F00E1E6E000E1F6E26
:1031E000030E206E080E216EFEC022F0B2EC25F018
:1031F000F00E1E6E000E1F6E030E206E090E216E65
:103200003A0E226EB2EC25F0FD0E536E000E546E97
:10321000695028EC24F0F00E1E6E000E1F6E030E97
:10322000206E0A0E216EFDC022F0B2EC25F0FC0EDD
:10323000536E000E546E685028EC24F0F00E1E6E93
:10324000000E1F6E030E206E0B0E216EFCC022F0CE
:10325000B2EC25F0F00E1E6E000E1F6E030E206EF7
:103260000C0E216E3A0E226EB2EC25F0FB0E536E60
:10327000000E546E675028EC24F0F00E1E6E000E07
:103280001F6E030E206E0D0E216EFBC022F0B2ECFD
:1032900025F0FA0E536E000E546E665028EC24F0A2
:1032A000F00E1E6E000E1F6E030E206E0E0E216EAF
:1032B000FAC022F0B2EC25F01200AAC0D9FFABC0D0
:1032C000DAFFDECFF6FFDDCFF7FFF86A0800F55032
:1032D000250AD8A46EEF19F070EF19F0DDEF19F0A0
:1032E000AAC0D9FFABC0DAFFDE2A000EDD22000E35
:1032F0000001D76F000ED66FD6C063F0D869D969C8
:10330000AAC0D9FFABC0DAFFDECFB4F0DDCFB5F095
:10331000B4C0F6FFB5C0F7FFF86A0800F550640ABC
:10332000D8B495EF19F097EF19F0A6EF19F0B4C0E3
:10333000F6FFB5C0F7FFF86A0800F550690AD8A48F
:10334000A4EF19F0A6EF19F0D4EF19F0ACC0D9FF33
:10335000ADC0DAFFDFCFAEF0020EDE26DFCFAFF07A
:10336000000EDD22AEC0D9FFAFC0DAFFDECFB0F075
:10337000DDCFB1F0010EB425AE6F000EB521AF6FF9
:10338000AAC0D9FFABC0DAFFAEC0DEFFAFC0DDFF21
:10339000A8C09BF0A9C09CF0B0C09DF0B1C09EF049
:1033A00029EC13F0F3EF19F0AAC0D9FFABC0DAFF94
:1033B000DE2A000EDD22F3EF19F0AAC0D9FFABC060
:1033C000DAFFDECFF6FFDDCFF7FFF86A0800F55031
:1033D0000001806F816BA8C082F0A9C083F013EC5C
:1033E0001DF0D4EF19F012002BC0D9FF2CC0DAFF6A
:1033F000DECFF6FFDDCFF7FFF86A0800F550250AAB
:10340000D8A405EF1AF007EF1AF074EF1AF02BC0EA
:10341000D9FF2CC0DAFFDE2A000EDD22000E0001EB
:10342000D76F000ED66FD6C063F0D869D9692BC0AC
:10343000D9FF2CC0DAFFDECF35F0DDCF36F035C056
:10344000F6FF36C0F7FFF86A0800F550640AD8B4F2
:103450002CEF1AF02EEF1AF03DEF1AF035C0F6FF00
:1034600036C0F7FFF86A0800F550690AD8A43BEFA8
:103470001AF03DEF1AF06BEF1AF02DC0D9FF2EC0F5
:10348000DAFFDFCF2FF0020EDE26DFCF30F0000EA6
:10349000DD222FC0D9FF30C0DAFFDECF31F0DDCF23
:1034A00032F0010E35242F6E000E3620306E2BC008
:1034B000D9FF2CC0DAFF2FC0DEFF30C0DDFF29C0EE
:1034C0001CF02AC01DF031C01EF032C01FF0F6EC17
:1034D00013F089EF1AF02BC0D9FF2CC0DAFFDE2AD7
:1034E000000EDD2289EF1AF02BC0D9FF2CC0DAFFC5
:1034F000DECFF6FFDDCFF7FFF86A0800F550016E6A
:10350000026A29C003F02AC004F079EC1DF06BEFC9
:103510001AF01200010E0A6E01500210D8B493EF97
:103520001AF095EF1AF0A6EF1AF001C0D9FF02C009
:10353000DAFFDF30E832E832070B046E070E04646E
:10354000A4EF1AF0A6EF1AF009EF1BF0000E0A6EB6
:103550001EEF1BF001C0D9FF02C0DAFFDF30E832F6
:10356000E832070B046E010E056E042ABAEF1AF05A
:10357000D8900536042EB8EF1AF00550FF0A066EF3
:1035800001C0D9FF02C0DAFFDF50070B076E0750FA
:10359000020D580EF324D96E010EF420DA6EDECF40
:1035A00008F0DDCF09F008C0D9FF09C0DAFF0650E6
:1035B000DF161EEF1BF001C0D9FF02C0DAFFDF30BB
:1035C000E832E832070B046E010E056E042AEBEFB9
:1035D0001AF0D8900536042EE9EF1AF001C0D9FF91
:1035E00002C0DAFFDF50070B066E0650020D580EC0
:1035F000F324D96E010EF420DA6EDECF07F0DDCFB2
:1036000008F007C0D9FF08C0DAFF0550DF121EEF2F
:103610001BF00350046E056A0550000AD8B413EF7E
:103620001BF0A6EF1AF00450000AD8B4AAEF1AF063
:10363000010AD8B4DBEF1AF0A6EF1AF00A50120014
:10364000662A0A0E6618D8A428EF1BF02AEF1BF092
:103650002DEF1BF0000E666E672A060E6718D8A4C1
:1036600034EF1BF036EF1BF039EF1BF0000E676EE6
:10367000682A0A0E6818D8A440EF1BF042EF1BF02E
:1036800045EF1BF0000E686E692A060E6918D8A473
:103690004CEF1BF04EEF1BF051EF1BF0000E696E6C
:1036A0006A2A0A0E6A18D8A458EF1BF05AEF1BF0CA
:1036B0005DEF1BF0000E6A6E6B2A6B04D8A463EFFB
:1036C0001BF065EF1BF0A2EF1BF0020E6A18D8A4E6
:1036D0006CEF1BF06EEF1BF0A2EF1BF0000E6B6E99
:1036E000000E6A6E642A6404D8A479EF1BF07BEFA5
:1036F0001BF089EF1BF0F00E1E6E000E1F6E030E06
:10370000206E100E216E500E226EB2EC25F0A2EF4C
:103710001BF0020E6418D8A490EF1BF092EF1BF080
:10372000A2EF1BF0000E646EF00E1E6E000E1F6EF8
:10373000030E206E100E216E410E226EB2EC25F0AB
:10374000A2EF1BF0C4EC18F01200000182358335A3
:10375000896F8951D8A4AFEF1BF0B1EF1BF0BBEF1D
:103760001BF0000E806F000E816F000E826F000E46
:10377000836F28EF1CF080C084F081C085F082C088
:1037800086F083C087F0200ECBEF1BF0D8908733F4
:10379000863385338433E82EC6EF1BF08451886F5F
:1037A000828FFF0E8017FF0E8117FF0E8217000E0B
:1037B0008317960E895F89BFE2EF1BF0E0EF1BF0E5
:1037C000F8EF1BF08951800A970FD8B0EAEF1BF091
:1037D000ECEF1BF0EEEF1BF0B1EF1BF0D890833352
:1037E000823381338033893FEEEF1BF010EF1CF002
:1037F0001F0E8965FEEF1BF000EF1CF008EF1CF0B8
:10380000B1EF1BF0D8908037813782378337890733
:103810008951D8A40EEF1CF010EF1CF002EF1CF041
:103820008851D8B416EF1CF018EF1CF020EF1CF0F4
:10383000831F821F811F806D000E812382238323BB
:1038400080C080F081C081F082C082F083C083F0AC
:103850001200000120EE07F08051D9268151DA22B2
:10386000DFAA35EF1CF037EF1CF099EF1CF0AB88A6
:1038700020EE07F08051D9268151DA22DFAC43EFE8
:103880001CF045EF1CF069EF1CF09D8AF28EF28C63
:103890009D8A20EE0CF08051D9268151DA22DECFAC
:1038A000DEF0DDCFDFF020EE0EF08051D926815121
:1038B000DA22DECFDCF0DDCFDDF020EE10F080513B
:1038C000D9268151DA22DECFDAF0DDCFDBF077EFD7
:1038D0001CF020EE07F08051D9268151DA22DFBC9E
:1038E00074EF1CF076EF1CF077EF1CF09D9A20EE41
:1038F00007F08051D9268151DA22DFAE82EF1CF029
:1039000084EF1CF087EF1CF0AB8CA7EF1CF020EECF
:1039100007F08051D9268151DA22DFBE92EF1CF0E8
:1039200094EF1CF097EF1CF0AB9CA7EF1CF0A7EFF7
:103930001CF020EE05F08051D9268151DA22DFBA41
:10394000A4EF1CF0A6EF1CF0A7EF1CF0AB98120040
:10395000000120EE05F08051D9268151DA22DFAA3C
:10396000B4EF1CF0B6EF1CF004EF1DF0AC8A20EEB3
:1039700005F08051D9268151DA22DFACC2EF1CF06C
:10398000C4EF1CF0D4EF1CF09D88F28EF28C9D8861
:1039900020EE0AF08051D9268151DA22DECFE0F004
:1039A000DDCFE1F0E2EF1CF020EE05F08051D926EA
:1039B0008151DA22DFBCDFEF1CF0E1EF1CF0E2EF17
:1039C0001CF09D9820EE05F08051D9268151DA2215
:1039D000DFAEEDEF1CF0EFEF1CF0F2EF1CF0AC8C63
:1039E00012EF1DF020EE05F08051D9268151DA2228
:1039F000DFBEFDEF1CF0FFEF1CF002EF1DF0AC9CF2
:103A000012EF1DF012EF1DF020EE05F08051D926C7
:103A10008151DA22DFBA0FEF1DF011EF1DF012EF26
:103A20001DF0AC9A1200000182518311D8B41BEF33
:103A30001DF01DEF1DF026EF1DF082518311D8A45B
:103A400024EF1DF026EF1DF02BEF1DF080516DECE3
:103A500027F078EF1DF020EE0AF08251D92683512D
:103A6000DA22DE50DE10D8B438EF1DF03AEF1DF048
:103A700055EF1DF020EE0AF08251D9268351DA224B
:103A800010EE03F08251E1268351E222DE50E65C23
:103A9000E650800A886FDE50800A8859D8B053EF0C
:103AA0001DF055EF1DF078EF1DF020EE03F0825170
:103AB000D9268351DA22DECF84F0DDCF85F082C0B3
:103AC000D9FF83C0DAFFDECF86F0DDCF87F08451E7
:103AD0008625D96E85518721DA6E80C0DFFF20EE02
:103AE00003F08251D9268351DA22DE2A000EDD222C
:103AF000120003500410D8B480EF1DF082EF1DF0C7
:103B00008BEF1DF003500410D8A489EF1DF08BEF4C
:103B10001DF090EF1DF001506EEC27F0DDEF1DF071
:103B200020EE0AF00350D9260450DA22DE50DE10CF
:103B3000D8B49DEF1DF09FEF1DF0BAEF1DF020EE01
:103B40000AF00350D9260450DA2210EE03F0035095
:103B5000E1260450E222DE50E65CE650800A096E5F
:103B6000DE50800A0958D8B0B8EF1DF0BAEF1DF04A
:103B7000DDEF1DF020EE03F00350D9260450DA22C9
:103B8000DECF05F0DDCF06F003C0D9FF04C0DAFFB9
:103B9000DECF07F0DDCF08F005500724D96E0650C0
:103BA0000820DA6E01C0DFFF20EE03F00350D926B3
:103BB0000450DA22DE2A000EDD22120053EC27F038
:103BC0006C0E0001C36F010EC46F7FEC24F0F00E89
:103BD0000001966F000E976FE0EC16F07E0E00016C
:103BE000836F010E846F69EC20F0F00E00019D6F71
:103BF000000E9E6F010E9F6F010EA06F3D0EA16F14
:103C0000100EA26FF8EC24F0F00E00019D6F000E74
:103C10009E6F020E9F6F010EA06F260EA16F100EF9
:103C2000A26FF8EC24F038EC16F0F00E00019D6F56
:103C3000000E9E6F030E9F6F100EA06F410EA16FBE
:103C40001EEC25F0F00E00019D6F000E9E6F030E1E
:103C50009F6F110EA06F4D0EA16F1EEC25F0F00EA0
:103C600000019D6F000E9E6F040E9F6F010EA06FEE
:103C7000110EA16F100EA26FF8EC24F03EEF1EF0B3
:103C800007EF00F0000E0001856F83BF4CEF1EF0C0
:103C90004AEF1EF052EF1EF0826D831FD8B0832BC7
:103CA000010E856F81BF59EF1EF057EF1EF05FEFD9
:103CB0001EF0806D811FD8B0812B010E851B000E78
:103CC000876F000E866F82518311D8B46AEF1EF0A1
:103CD0006CEF1EF094EF1EF0010E846F74EF1EF077
:103CE000D89082378337842B83AF79EF1EF07BEF38
:103CF0001EF070EF1EF0D890863787378251805DB6
:103D000083518159D8A087EF1EF089EF1EF08EEF06
:103D10001EF08251805F8351815B8681D89083330E
:103D20008233842F7BEF1EF08551D8B49AEF1EF0BA
:103D30009CEF1EF0A0EF1EF0866D871FD8B0872B7A
:103D400086C080F087C081F01200000E066E04BEAF
:103D5000AEEF1EF0ACEF1EF0B4EF1EF0036C041ECD
:103D6000D8B0042A010E066E02BEBBEF1EF0B9EFFA
:103D70001EF0C1EF1EF0016C021ED8B0022A010E27
:103D8000061A000E086E000E076E03500410D8B419
:103D9000CCEF1EF0CEEF1EF0F6EF1EF0010E056E1A
:103DA000D6EF1EF0D89003360436052A04AEDBEFBA
:103DB0001EF0DDEF1EF0D2EF1EF0D8900736083669
:103DC0000350015C04500258D8A0E9EF1EF0EBEF5D
:103DD0001EF0F0EF1EF00350015E0450025A0780FF
:103DE000D89004320332052EDDEF1EF00650D8B411
:103DF000FCEF1EF0FEEF1EF002EF1FF0076C081E36
:103E0000D8B0082A07C001F008C002F01200000173
:103E1000990743EF1FF096C08DF097C08EF099512F
:103E2000800F8F6FBDEC20F000019C6F60EF1FF0E2
:103E300096C08DF097C08EF09951C00F8F6FBDEC7A
:103E400020F000019C6F60EF1FF096C08DF097C0CE
:103E50008EF09951940F8F6FBDEC20F000019C6F94
:103E600060EF1FF096C08DF097C08EF09951D40F7F
:103E70008F6FBDEC20F000019C6F60EF1FF0000E13
:103E80009C6F60EF1FF098519A6F9B6B9B51000ADB
:103E9000D8B44DEF1FF03FEF1FF09A51010AD8B48C
:103EA0000BEF1FF0030AD8B418EF1FF0010AD8B4C3
:103EB00025EF1FF0070AD8B432EF1FF03FEF1FF0D5
:103EC0009C511200000E0001856F81BF6CEF1FF046
:103ED0006AEF1FF072EF1FF0806D811FD8B0812B49
:103EE000010E856F83BF79EF1FF077EF1FF07DEF35
:103EF0001FF0826D831FD8B0832B82518311D8B4F9
:103F000084EF1FF086EF1FF0AAEF1FF0010E846F01
:103F10008EEF1FF0D89082378337842B83AF93EFD7
:103F20001FF095EF1FF08AEF1FF08251805D8351E3
:103F30008159D8A09EEF1FF0A0EF1FF0A4EF1FF053
:103F40008251805F8351815BD89083338233842F89
:103F500095EF1FF08551D8B4B0EF1FF0B2EF1FF00E
:103F6000B6EF1FF0806D811FD8B0812B80C080F02C
:103F700081C081F01200000E066E02BEC4EF1FF079
:103F8000C2EF1FF0CAEF1FF0016C021ED8B0022A68
:103F9000010E066E04BED1EF1FF0CFEF1FF0D5EF7C
:103FA0001FF0036C041ED8B0042A03500410D8B4C8
:103FB000DCEF1FF0DEEF1FF002EF20F0010E056EC8
:103FC000E6EF1FF0D89003360436052A04AEEBEF77
:103FD0001FF0EDEF1FF0E2EF1FF00350015C045003
:103FE0000258D8A0F6EF1FF0F8EF1FF0FCEF1FF01B
:103FF0000350015E0450025AD89004320332052E59
:10400000EDEF1FF00650D8B408EF20F00AEF20F0D3
:104010000EEF20F0016C021ED8B0022A01C001F0A0
:1040200002C002F012001A064AEF20F017C00EF08C
:1040300018C00FF01A50800F106E57EC21F01D6E53
:1040400067EF20F017C00EF018C00FF01A50C00F25
:10405000106E57EC21F01D6E67EF20F017C00EF0C8
:1040600018C00FF01A50940F106E57EC21F01D6E0F
:1040700067EF20F017C00EF018C00FF01A50D40FE1
:10408000106E57EC21F01D6E67EF20F0000E1D6ED4
:1040900067EF20F019501B6E1C6A1C50000AD8B440
:1040A00054EF20F046EF20F01B50010AD8B416EF71
:1040B00020F0030AD8B422EF20F0010AD8B42EEF82
:1040C00020F0070AD8B43AEF20F046EF20F01D5058
:1040D0001200010E0001876F83518411D8A473EF81
:1040E00020F075EF20F079EF20F0000E876FBBEF26
:1040F00020F0D59E83C080F084C081F0FBEC23F0DB
:1041000083C080F084C081F071EC22F083C080F025
:1041100084C081F018EC26F0000120EE04F08351F9
:10412000D9268451DA22DECF85F0DDCF86F086C035
:1041300085F0866B8551D76E20EE04F08351D92629
:104140008451DA22DF50D66E20EE04F08351D92656
:104150008451DA22DECFE6F0DDCFE7F0F28EF28C8A
:10416000F28AF29483C0D9FF84C0DAFFDECFE8F090
:10417000DDCFE9F0D58E87511200000E0001956F5A
:104180008D518E11D8A4C7EF20F0C9EF20F0CDEFEC
:1041900020F0000E946F08EF21F08DC080F08EC0EB
:1041A00081F0000E826F2BEC18F0000E0001956F6D
:1041B00095518D25906F000E8E21916F020E9025E6
:1041C000806F000E9121816F95C092F08FC093F0A7
:1041D000922BEDEF20F0D8909333922FEBEF20F05D
:1041E00000019351010B826F2BEC18F00001952B0D
:1041F000070E9565FEEF20F000EF21F0D8EF20F0DC
:104200008DC08AF08EC08BF058EC26F00001946FC0
:1042100094511200000E0001956F8D518E11D8A49B
:1042200014EF21F016EF21F01AEF21F0000E946F39
:1042300055EF21F08DC080F08EC081F0010E826FAD
:104240002BEC18F0000E0001956F95518D25906FA5
:10425000000E8E21916F020E9025806F000E91212D
:10426000816F95C092F08FC093F0922B3AEF21F0BE
:10427000D8909333922F38EF21F000019351010B26
:10428000826F2BEC18F00001952B070E95654BEF14
:1042900021F04DEF21F025EF21F08DC08AF08EC086
:1042A0008BF058EC26F00001946F94511200000E30
:1042B000166E0E500F10D8A460EF21F062EF21F0BF
:1042C00066EF21F0000E156E9DEF21F00EC001F09B
:1042D0000FC002F0000E036E8AEC1AF0000E166E8C
:1042E00016500E24116E000E0F20126E020E1124B5
:1042F000016E000E1220026E16C013F010C014F0F2
:10430000132A85EF21F0D8901432132E83EF21F079
:104310001450010B036E8AEC1AF0162A070E16646D
:1043200094EF21F096EF21F070EF21F00EC00BF02A
:104330000FC00CF0AEEC26F0156E15501200000EFA
:10434000166E0E500F10D8A4A8EF21F0AAEF21F09E
:10435000AEEF21F0000E156EE5EF21F00EC001F07A
:104360000FC002F0010E036E8AEC1AF0000E166EFA
:1043700016500E24116E000E0F20126E020E112424
:10438000016E000E1220026E16C013F010C014F061
:10439000132ACDEF21F0D8901432132ECBEF21F059
:1043A0001450010B036E8AEC1AF0162A070E1664DD
:1043B000DCEF21F0DEEF21F0B8EF21F00EC00BF0C2
:1043C0000FC00CF0AEEC26F0156E15501200240E46
:1043D000F66E4D0EF76E000EF86E01EE4EF010EE1A
:1043E00037F00900F5CFEEFFE550E150FAE1660E37
:1043F000F66E4E0EF76E000EF86E00EEF0F010EE58
:1044000010F00900F5CFEEFFE550E150FAE1920E11
:10441000F66E4E0EF76E000EF86E00EE74F010EEB3
:104420000BF00900F5CFEEFFE550E150FAE101EEA7
:1044300000F04E0EEE6AE806FDE100EED6F01A0E30
:10444000EE6AE806FDE100EE63F0110EEE6AE806A2
:10445000FDE17F907F920001DEEF1DF00001DE5153
:10446000DF11D8B436EF22F038EF22F044EF22F01B
:1044700002D844EF22F00500FA6EDE51FD6EDF51E6
:10448000FE6EFF6AFA5012000001DC51DD11D8B453
:104490004CEF22F04EEF22F05AEF22F002D85AEF02
:1044A00022F00500FA6EDC51FD6EDD51FE6EFF6AF2
:1044B000FA5012000001DA51DB11D8B462EF22F099
:1044C00064EF22F070EF22F002D870EF22F00500C6
:1044D000FA6EDA51FD6EDB51FE6EFF6AFA50120081
:1044E0001200000120EE06F08051D9268151DA2217
:1044F000DFA47DEF22F07FEF22F082EF22F0D59A49
:10450000B0EF22F020EE06F08051D9268151DA2258
:10451000DFB48DEF22F08FEF22F0B0EF22F0D58ADA
:1045200020EE06F08051D9268151DA22DFA29BEFDE
:1045300022F09DEF22F0A0EF22F0D598B0EF22F00C
:1045400020EE06F08051D9268151DA22DFB2ABEF9E
:1045500022F0ADEF22F0B0EF22F0D588B0EF22F0DC
:104560001200000195BFB7EF22F0B9EF22F0BFEFC4
:1045700022F094C099F095C09AF0C3EF22F0000E9B
:104580009A6F000E996F000E986F000E976FD6EF1E
:1045900022F0000E816F200E806F90C082F091C0DB
:1045A00083F013EC1DF00001974B982B9951975D08
:1045B0009851800A966F9A51800A9659D8A0E3EFD5
:1045C00022F0E5EF22F0C9EF22F092C089F093C00B
:1045D0008AF090C08BF091C08CF06AEC25F012004C
:1045E00016BEF5EF22F0F7EF22F0FDEF22F015C036
:1045F0001AF016C01BF001EF23F0000E1B6E000E28
:104600001A6E000E196E000E186E13EF23F0000ED6
:10461000026E200E016E11C003F012C004F079EC9E
:104620001DF0184A192A1A50185C1950800A176E82
:104630001B50800A1758D8A020EF23F022EF23F058
:1046400007EF23F013C00AF014C00BF011C00CF0F8
:1046500012C00DF0D5EC25F0120000018A518B112B
:10466000D8B435EF23F037EF23F048EF23F08AC0BA
:10467000D9FF8BC0DAFFDF30E832E832070B8C6FEE
:10468000070E8C6546EF23F048EF23F04CEF23F044
:10469000000E8D6F64EF23F08AC080F08BC081F034
:1046A00086EC17F000018D6F8AC080F08BC081F01E
:1046B0008AC0D9FF8BC0DAFF000EDFBE010E826F09
:1046C0002BEC18F000018D6F8D511200010E0001CE
:1046D0009A6F96519711D8A470EF23F072EF23F0E0
:1046E00088EF23F0000E9A6F97EF23F096C08DF0BD
:1046F00097C08EF098C0F6FF99C0F7FFF86A0800DF
:10470000F5CF8FF00AEC21F000019A6F984B992BAE
:1047100098C0F6FF99C0F7FFF86A0800F550000945
:10472000D8A495EF23F097EF23F076EF23F09A517A
:1047300012000001D46F010E0001D56FD251D311C8
:10474000D8A4A5EF23F0A7EF23F0ABEF23F0000EE2
:10475000D56FC7EF23F0D2C080F0D3C081F0000E38
:10476000836F000E826F000E856F040E846FC1ECA4
:1047700014F0D2C0BEF0D3C0BFF04C0E0001C06F29
:10478000100EC16FD4C0C2F0C36BA8EC24F00001BE
:10479000D5511200010E1B6E17501810D8A4D3EF7C
:1047A00023F0D5EF23F0EAEF23F0000E1B6EF9EFB4
:1047B00023F017C00EF018C00FF019C0F6FF1AC092
:1047C000F7FFF86A0800F5CF10F09FEC21F01B6EA0
:1047D000194A1A2A19C0F6FF1AC0F7FFF86A08002A
:1047E000F5500009D8A4F7EF23F0F9EF23F0D9EF43
:1047F00023F01B501200000120EE06F08051D92654
:104800008151DA22DFA007EF24F009EF24F019EF3D
:1048100024F0D59620EE03F08051D9268151DA227A
:10482000DF50826FD5508219F80B8219D56E27EFB1
:1048300024F020EE06F08051D9268151DA22DFB033
:1048400024EF24F026EF24F027EF24F0D586120081
:10485000556E010E566E53505410D8A432EF24F00A
:1048600034EF24F038EF24F0000E566E53EF24F0AE
:1048700053C001F054C002F0000E046E000E036E2F
:10488000000E066E040E056E7DEC15F053C03FF071
:1048900054C040F04C0E416E100E426E55C043F0B5
:1048A000446A44EC25F056501200B8C0BCF0B9C0C0
:1048B000BDF06AEF24F0B6C0A8F0B7C0A9F0BC0EF6
:1048C0000001AA6F000EAB6FBAC0ACF0BBC0ADF078
:1048D0005DEC19F0BCC0F6FFBDC0F7FFF86A080038
:1048E000F5500009D8A477EF24F079EF24F05BEFBE
:1048F00024F0000E0001B76F000EB66F1200010E1B
:104900000001C56FC351C411D8A489EF24F08BEF07
:1049100024F08FEF24F0000EC56FA5EF24F0AB9EBE
:10492000948C948EC3C0B7F0C4C0B8F028EC08F0E3
:10493000C3C080F0C4C081F0A8EC1CF0C3C080F0FC
:10494000C4C081F029EC1CF0AB8E0001C5511200EF
:10495000C20E0001C46F000EC56FBEC0C6F0BFC05E
:10496000C7F0000ECA6F000EC96F000ED16F000EA7
:10497000D06FC60EB66F000EB76FC0C0B8F0C1C022
:10498000B9F0C40EBA6F000EBB6F55EC24F00001F5
:10499000C951BE25D96ECA51BF21DA6EDF6A120035
:1049A00039C03DF03AC03EF0E4EF24F037C029F0C2
:1049B00038C02AF03D0E2B6E000E2C6E3BC02DF041
:1049C0003CC02EF0F4EC19F03DC0F6FF3EC0F7FFFE
:1049D000F86A0800F5500009D8A4F1EF24F0F3EFCD
:1049E00024F0D6EF24F0000E386E000E376E120061
:1049F00000019D519E11D8A400EF25F002EF25F093
:104A000006EF25F0000EA36F1CEF25F09DC096F079
:104A10009EC097F09FC098F0A0C099F007EC1FF0DF
:104A20009DC096F09EC097F0A1C098F0A2C099F0EA
:104A300066EC23F00001A36FA351120000019D5109
:104A40009E11D8A426EF25F028EF25F02CEF25F0B5
:104A5000000EA26F42EF25F09DC096F09EC097F029
:104A60009FC098F0A0C099F007EC1FF00001A26F62
:104A70009DC08DF09EC08EF0A1C08FF00AEC21F099
:104A80000001A26FA2511200430E456E000E466E49
:104A90003FC047F040C048F0000E4B6E000E4A6E1B
:104AA000000E526E000E516E470E376E000E386EBD
:104AB00041C039F042C03AF0450E3B6E000E3C6EEC
:104AC000D0EC24F04A503F24D96E4B504020DA6E8F
:104AD000DF6A1200000E00018F6F000E8E6F7DEFF7
:104AE00025F08DC080F0816B8BC082F08CC083F08C
:104AF00013EC1DF000018E4B8F2B8E518925D96E42
:104B00008F518A21DA6EDF508D6F8D51D8A48BEFD3
:104B100025F08DEF25F071EF25F012001E501F10CB
:104B2000D8A495EF25F097EF25F09BEF25F0000E28
:104B3000246EB0EF25F01EC017F01FC018F020C083
:104B400019F021C01AF013EC20F01EC017F01FC09E
:104B500018F022C019F023C01AF0CAEC23F0246E1A
:104B6000245012001E501F10D8A4B9EF25F0BBEF3F
:104B700025F0BFEF25F0000E236ED3EF25F01EC009
:104B800017F01FC018F020C019F021C01AF013EC64
:104B900020F0236E1EC00EF01FC00FF022C010F0D8
:104BA0009FEC21F0236E23501200000E106E000EB9
:104BB0000F6EE6EF25F00EC001F0026A0CC003F0A4
:104BC0000DC004F079EC1DF00F4A102A0F500A2492
:104BD000D96E10500B20DA6EDF500E6E0E50D8A436
:104BE000F4EF25F0F6EF25F0DBEF25F012000001E1
:104BF00087BF05EF26F0875106E18605D8B003EFA1
:104C000026F005EF26F013EF26F086C088F087C067
:104C100089F0881F891F884B892B88C086F089C03E
:104C200087F017EF26F086C086F087C087F0120065
:104C3000000120EE06F08051D9268151DA22DFA64C
:104C400024EF26F026EF26F029EF26F0D58C37EF5B
:104C500026F020EE06F08051D9268151DA22DFB607
:104C600034EF26F036EF26F037EF26F0D59C120011
:104C700008BE45EF26F0085006E10704D8B043EF20
:104C800026F045EF26F053EF26F007C009F008C0E4
:104C90000AF0091E0A1E094A0A2A09C007F00AC0BA
:104CA00008F057EF26F007C007F008C008F0120020
:104CB000010E00018A25806F000E8B21816F010E8D
:104CC000826F2BEC18F0030EE82EFED700F0010ED9
:104CD00000018A25806F000E8B21816F000E826F8C
:104CE0002BEC18F000018C6F8C511200F294000133
:104CF000E751D76EE6C0D6FFE851E911D8B483EF8B
:104D000026F085EF26F091EF26F002D891EF26F0FD
:104D10000500FA6EE851FD6EE951FE6EFF6AFA5029
:104D200012001200800F810F820F830F840F890FF2
:104D30008A0F8B0F8C0F8D0F920F930F940F950F7F
:104D4000960F80250000006000600000E04E1C22ED
:0B4D5000544EAC4E40360104DC0B0753
:104D5C00010E0B24016E000E0C20026E010E036E70
:104D6C008AEC1AF0030EE82EFED700F0010E0B248D
:104D7C00016E000E0C20026E000E036E8AEC1AF00F
:104D8C000D6E0D5012009D980001E051E111D8B448
:104D9C00D2EF26F0D4EF26F0E0EF26F002D8E0EFC9
:104DAC0026F00500FA6EE051FD6EE151FE6EFF6AD1
:104DBC00FA5012001200010E036E9EAAE8EF26F0C4
:104DCC00EAEF26F0F2EF26F001C0D9FF02C0DAFFBD
:104DDC00AECFDFFFF4EF26F0000E036E035012008F
:104DEC00016EF2900150D8A4FEEF26F000EF27F0F0
:104DFC0002EF27F002EF27F01200016EF290015043
:104E0C00D8A40BEF27F00DEF27F00FEF27F00FEFE3
:104E1C0027F01200016EF2900150D8A418EF27F081
:104E2C001AEF27F01CEF27F01CEF27F01200016E91
:104E3C00F2900150D8A425EF27F027EF27F029EFA7
:104E4C0027F029EF27F01200000E046E040E016EFD
:104E5C00000E026EE1EC26F01200020A030B131B8B
:104E6C00232B333B303030303030A1920001E351F2
:104E7C00B36EE2C0B2FF12009E900001E551CF6EFE
:104E8C00E4C0CEFF1200685A622A1A622A0101019C
:014E9C000114
:104E9E009E926CC0CCFF12006CEC27F0120059EC05
:104EAE0027F01200AB98AB881200F0921200F0902F
:104EBE001200F29212009E961200A1961200A1907C
:104ECE0012009E9412009E9C1200120012001200FC
:044EDE0012001200AC
:020000040020DA
:08000000FFFFFFFFFFFFFFFF00
:020000040030CA
:0E000000FF02091EFF8181FF0FC00FE00F40BD
:00000001FF
